:020000040000FA
:100000000C945C000C9479000C9479000C947900A9
:100010000C9479000C9479000C9479000C9479007C
:100020000C9479000C9479000C9479000C9479006C
:100030000C9479000C9442010C9479000C94790092
:100040000C94F8000C9479000C9479000C947900CD
:100050000C9479000C9479000C9479000C9479003C
:100060000C9479000C947900000000002400270013
:100070002A0000000000250028002B0004040404CE
:100080000404040402020202020203030303030342
:10009000010204081020408001020408102001021F
:1000A00004081020000000080002010000030407FB
:1000B000000000000000000011241FBECFEFD8E0B8
:1000C000DEBFCDBF11E0A0E0B1E0E6EEFBE002C094
:1000D00005900D92A030B107D9F721E0A0E0B1E082
:1000E00001C01D92A432B207E1F70E9467010C948F
:1000F000F1050C94000090E0FC01EC55FF4F2491B9
:10010000FC01E057FF4F3491FC01E458FF4FE491AC
:10011000EE23C9F0222339F0233001F1A8F4213075
:1001200019F1223029F1F0E0EE0FFF1FEE58FF4FDA
:10013000A591B4918FB7F894EC91611126C03095D8
:100140003E233C938FBF08952730A9F02830C9F093
:10015000243049F7809180008F7D03C0809180001A
:100160008F7780938000DFCF84B58F7784BDDBCF1E
:1001700084B58F7DFBCF8091B0008F778093B000E6
:10018000D2CF8091B0008F7DF9CF3E2BDACFCF93C5
:10019000DF9390E0FC01E057FF4F249184589F4F7C
:1001A000FC0184918823D1F090E0880F991FFC0115
:1001B000E859FF4FA591B491FC01EE58FF4FC5914E
:1001C000D49161110EC09FB7F8948C91E22FE09505
:1001D0008E238C932881E223E8839FBFDF91CF9108
:1001E00008958FB7F894EC91E22BEC938FBFF6CF84
:1001F0001F920F920FB60F9211242F933F938F935C
:100200009F93AF93BF938091050190910601A091B8
:100210000701B09108013091040123E0230F2D372D
:1002200058F50196A11DB11D20930401809305018D
:1002300090930601A0930701B093080180910001FB
:1002400090910101A0910201B09103010196A11DBD
:10025000B11D8093000190930101A0930201B0931E
:100260000301BF91AF919F918F913F912F910F907B
:100270000FBE0F901F90189526E8230F0296A11D20
:10028000B11DD2CF1F920F920FB60F9211242F9350
:100290003F934F935F936F937F938F939F93AF930E
:1002A000BF93EF93FF93F0E0E0E00995FF91EF91AA
:1002B000BF91AF919F918F917F916F915F914F917E
:1002C0003F912F910F900FBE0F901F90189578942B
:1002D00084B5826084BD84B5816084BD85B582604B
:1002E00085BD85B5816085BD80916E0081608093FC
:1002F0006E00109281008091810082608093810065
:100300008091810081608093810080918000816074
:10031000809380008091B10084608093B1008091CF
:10032000B00081608093B00080917A0084608093F7
:100330007A0080917A00826080937A0080917A00BE
:10034000816080937A0080917A00806880937A003F
:100350001092C10061E089E00E94C70061E08AE07C
:100360000E94C70061E08BE00E94C70060E08AE065
:100370000E947B0060E08BE00E947B0080E1809324
:1003800081001092800081E08093090180E590E077
:1003900090930B0180930A019093870080938600CD
:1003A00081E18093810060E08FE00E94C70011E44A
:1003B000C0E0D0E043E3842E982CA82C4FE3B42E69
:1003C00010937C0080917A00806480937A00809101
:1003D0007A0086FDFCCF8091780020917900322F41
:1003E000282F032E000C440B550B2659334041098E
:1003F0005109A2EABFEF0E94840327E93EEF4FEFC5
:100400005FEF0E945703CA01B901625A7F4F8F4FB5
:100410009F4F0E94CF049B01AC010E94BB0323ECC1
:1004200035EF48E450E40E94840520E030E044EBDE
:1004300053E40E942C046093200170932101809367
:100440002201909323018FB7F894C0900501D090BA
:100450000601E0900701F09008018FBF80911C0118
:1004600090911D01A0911E01B0911F01A70196015D
:10047000281B390B4A0B5B0BCA01B9010E94CF0440
:100480002AE037ED43E25CE30E947F0518160CF08A
:1004900060C0C0921C01D0921D01E0921E01F0923A
:1004A0001F01C0902001D0902101E0902201F09026
:1004B0002301F7FAF094F7F8F094C0921801D09263
:1004C0001901E0921A01F0921B0120911401309160
:1004D00015014091160150911701C701B6010E9404
:1004E000BA0320E030E040E450E40E9484052AE0B2
:1004F00037ED43E25CE30E942C042B013C0120E039
:1005000030E040EA51E4C701B6010E9484059B0136
:10051000AC01C301B2010E94BB0326EE3CE54AE0F8
:100520005DE30E94840524E13EEA4DED50E40E9423
:100530002C04609310017093110180931201909329
:10054000130180920C0190920D01A0920E01B092C5
:100550000F0120E030E0A9016091100170911101BC
:1005600080911201909113010E947F051816CCF51D
:1005700060E08AE00E947B0061E08BE00E947B00EB
:1005800020E030EC4FE754E460910C0170910D01D4
:1005900080910E0190910F010E9484050E949E049B
:1005A0006B0161E089E00E94C70080918000806853
:1005B00080938000A0910A01B0910B0196010E94E6
:1005C000AB033AE096958795779567953A95D1F77D
:1005D0007093890060938800809109018061809305
:1005E000810020E030E0A9016091100170911101BB
:1005F00080911201909113010E94270487FF39C056
:1006000061E08AE00E947B0060E08BE00E947B005A
:1006100020E030EC4FE754E460910C0170910D0143
:1006200080910E0190910F010E9484050E949E040A
:100630006B0161E089E00E94C700809180008068C2
:1006400080938000A0910A01B0910B0196010E9455
:10065000AB032AE096958795779567952A95D1F70C
:100660007093890060938800809109018061809374
:10067000810010921001109211011092120110923B
:1006800013018091180190911901A0911A01B09164
:100690001B018093140190931501A0931601B09350
:1006A0001701209709F48CCE0E94000089CE052EF8
:1006B00097FB1EF400940E946E0357FD07D00E9422
:1006C000890307FC03D04EF40C946E0350954095BB
:1006D000309521953F4F4F4F5F4F089590958095EE
:1006E000709561957F4F8F4F9F4F08950E94AB0388
:1006F000A59F900DB49F900DA49F800D911D112476
:100700000895B7FF0C9476030E947603821B930B27
:100710000895A1E21A2EAA1BBB1BFD010DC0AA1F42
:10072000BB1FEE1FFF1FA217B307E407F50720F05A
:10073000A21BB30BE40BF50B661F771F881F991FD5
:100740001A9469F760957095809590959B01AC011E
:10075000BD01CF010895A29FB001B39FC001A39F27
:10076000700D811D1124911DB29F700D811D1124EA
:10077000911D08955058BB27AA270E94D2030C94BC
:1007800045050E94370538F00E943E0520F039F4F7
:100790009F3F19F426F40C9434050EF4E095E7FB22
:1007A0000C942E05E92F0E94560558F3BA176207DC
:1007B00073078407950720F079F4A6F50C94780563
:1007C0000EF4E0950B2EBA2FA02D0B01B90190016C
:1007D0000C01CA01A0011124FF27591B99F0593FB0
:1007E00050F4503E68F11A16F040A22F232F342FF8
:1007F0004427585FF3CF469537952795A795F04046
:100800005395C9F77EF41F16BA0B620B730B840B5A
:10081000BAF09150A1F0FF0FBB1F661F771F881F12
:10082000C2F70EC0BA0F621F731F841F48F487956A
:1008300077956795B795F7959E3F08F0B0CF93955C
:10084000880F08F09927EE0F9795879508950E94D5
:100850000A0508F481E008950E9440040C944505BF
:100860000E943E0558F00E94370540F029F45F3F92
:1008700029F00C942E0551110C9479050C94340533
:100880000E94560568F39923B1F3552391F3951B04
:10089000550BBB27AA2762177307840738F09F5FA1
:1008A0005F4F220F331F441FAA1FA9F335D00E2E0E
:1008B0003AF0E0E832D091505040E695001CCAF77B
:1008C0002BD0FE2F29D0660F771F881FBB1F26173E
:1008D00037074807AB07B0E809F0BB0B802DBF0115
:1008E000FF2793585F4F3AF09E3F510578F00C94E4
:1008F0002E050C9479055F3FE4F3983ED4F386957A
:1009000077956795B795F7959F5FC9F7880F911D04
:100910009695879597F90895E1E0660F771F881FF0
:10092000BB1F621773078407BA0720F0621B730BA3
:10093000840BBA0BEE1F88F7E09508950E945E05C0
:1009400088F09F5798F0B92F9927B751B0F0E1F090
:10095000660F771F881F991F1AF0BA95C9F714C040
:10096000B13091F00E947805B1E008950C947805BB
:10097000672F782F8827B85F39F0B93FCCF3869579
:1009800077956795B395D9F73EF4909580957095D6
:1009900061957F4F8F4F9F4F0895E89409C097FB53
:1009A0003EF490958095709561957F4F8F4F9F4F46
:1009B0009923A9F0F92F96E9BB279395F69587958A
:1009C00077956795B795F111F8CFFAF4BB0F11F44D
:1009D00060FF1BC06F5F7F4F8F4F9F4F16C08823F4
:1009E00011F096E911C0772321F09EE8872F762F2A
:1009F00005C0662371F096E8862F70E060E02AF06B
:100A00009A95660F771F881FDAF7880F9695879556
:100A100097F90895990F0008550FAA0BE0E8FEEF2B
:100A200016161706E807F907C0F012161306E407B2
:100A3000F50798F0621B730B840B950B39F40A26AB
:100A400061F0232B242B252B21F408950A2609F489
:100A5000A140A6958FEF811D811D089597F99F678D
:100A600080E870E060E008959FEF80EC0895002436
:100A70000A941616170618060906089500240A9403
:100A800012161306140605060895092E0394000C89
:100A900011F4882352F0BB0F40F4BF2B11F460FF18
:100AA00004C06F5F7F4F8F4F9F4F089557FD905841
:100AB000440F551F59F05F3F71F04795880F97FB22
:100AC000991F61F09F3F79F08795089512161306DC
:100AD0001406551FF2CF4695F1DF08C0161617060B
:100AE0001806991FF1CF8695710561050894089540
:100AF000E894BB2766277727CB0197F908950E94D2
:100B00000A0508F48FEF08950E9497050C94450597
:100B10000E94370538F00E943E0520F0952311F021
:100B20000C942E050C94340511240C9479050E9424
:100B3000560570F3959FC1F3950F50E0551F629FC6
:100B4000F001729FBB27F00DB11D639FAA27F00D26
:100B5000B11DAA1F649F6627B00DA11D661F829F4D
:100B60002227B00DA11D621F739FB00DA11D621F32
:100B7000839FA00D611D221F749F3327A00D611D4F
:100B8000231F849F600D211D822F762F6A2F112431
:100B90009F5750409AF0F1F088234AF0EE0FFF1F64
:100BA000BB1F661F771F881F91505040A9F79E3FBB
:100BB000510580F00C942E050C9479055F3FE4F309
:100BC000983ED4F3869577956795B795F795E79511
:100BD0009F5FC1F7FE2B880F911D9695879597F91A
:060BE0000895F894FFCF18
:107E0000112484B714BE81FFF0D085E080938100F7
:107E100082E08093C00088E18093C10086E0809377
:107E2000C20080E18093C4008EE0C9D0259A86E02C
:107E300020E33CEF91E0309385002093840096BBD3
:107E4000B09BFECF1D9AA8958150A9F7CC24DD24C4
:107E500088248394B5E0AB2EA1E19A2EF3E0BF2EE7
:107E6000A2D0813461F49FD0082FAFD0023811F036
:107E7000013811F484E001C083E08DD089C08234E0
:107E800011F484E103C0853419F485E0A6D080C0E4
:107E9000853579F488D0E82EFF2485D0082F10E0AE
:107EA000102F00270E291F29000F111F8ED06801E7
:107EB0006FC0863521F484E090D080E0DECF843638
:107EC00009F040C070D06FD0082F6DD080E0C81688
:107ED00080E7D80618F4F601B7BEE895C0E0D1E017
:107EE00062D089930C17E1F7F0E0CF16F0E7DF06D8
:107EF00018F0F601B7BEE89568D007B600FCFDCFD4
:107F0000A601A0E0B1E02C9130E011968C91119780
:107F100090E0982F8827822B932B1296FA010C0160
:107F200087BEE89511244E5F5F4FF1E0A038BF0790
:107F300051F7F601A7BEE89507B600FCFDCF97BE46
:107F4000E89526C08437B1F42ED02DD0F82E2BD052
:107F50003CD0F601EF2C8F010F5F1F4F84911BD097
:107F6000EA94F801C1F70894C11CD11CFA94CF0C13
:107F7000D11C0EC0853739F428D08EE10CD085E9AC
:107F80000AD08FE07ACF813511F488E018D01DD067
:107F900080E101D065CF982F8091C00085FFFCCF94
:107FA0009093C60008958091C00087FFFCCF809118
:107FB000C00084FD01C0A8958091C6000895E0E648
:107FC000F0E098E1908380830895EDDF803219F02E
:107FD00088E0F5DFFFCF84E1DECF1F93182FE3DFCA
:107FE0001150E9F7F2DF1F91089580E0E8DFEE27F6
:047FF000FF270994CA
:027FFE00040479
:00000001FF
